:1000000038C252C2C5C250C24FC24EC270C24CC2E8
:100010004BC283C549C248C247C246C245C244C258
:1000200043C206014A0188010B02930288010B02B8
:10003000930206014A0188010B02930288010B0218
:10004000930206012601B8014B02BA02B8014B0225
:10005000BA0206012601B8014B02BA02B8014B02EE
:10006000BA02F700260188014B02BA0288014B024E
:10007000BA02F700260188014B02BA0288014B023E
:10008000BA0206014A0188010B02930288010B02A1
:10009000930206014A0188010B02930288010B02B8
:1000A000930206014A01B80193027003B80193025A
:1000B000700306014A01B80193027003B80193026C
:1000C0007003060126017201B8014B027201B801EA
:1000D0004B02060126017201B8014B027201B80100
:1000E0004B02F700260188014B02100388014B02E6
:1000F0001003F700260188014B02100388014B0210
:100100001003F70006014A0188010B024A01880129
:100110000B02F70006014A0188010B024A0188011F
:100120000B02DC0006014A0188010B024A0188012A
:100130000B02DC0006014A0188010B024A0188011A
:100140000B029300DC00260172010B0226017201F2
:100150000B029300DC00260172010B0226017201E2
:100160000B02C400F70026018801EE012601880178
:10017000EE01C400F70026018801EE012601880186
:10018000EE01C400E9004A0188012A024A018801FF
:100190002A02C400E9004A0188012A024A018801B2
:1001A0002A02AF00DC002601B8014B022601B8018B
:1001B0004B02AF00DC002601B8014B022601B8015A
:1001C0004B02AF00D00026015D01EE0126015D016A
:1001D000EE01AF00D00026015D01EE0126015D01B8
:1001E000EE01A500C400060188010B02060188018A
:1001F0000B02A500C400060188010B02060188015C
:100200000B02A500AF00DC0006015D01DC00060169
:100210005D01A500AF00DC0006015D01DC00060108
:100220005D019300AF00DC0006015D01DC0006010A
:100230005D019300AF00DC0006015D01DC000601FA
:100240005D0162009300C400F7005D01C400F70087
:100250005D0162009300C400F7005D01C400F70077
:100260005D018300A500C40006014A01C400060127
:100270004A018300A500C40006014A01C40006012A
:100280004A018300C400E90006014A01E9000601B1
:100290004A018300C400E90006014A01E9000601A1
:1002A0004A015700AF00DC0006014A01DC000601EC
:1002B0004A015700AF00DC0006014A01DC000601DC
:1002C0004A015D008300DC0006013701DC00060105
:1002D00037015D008300DC0006013701DC00060108
:1002E00037016800AF00F70006012601F70006019C
:1002F00026016800AF00F70006012601F70006019D
:1003000026016200AF00C400F7002601C400F70018
:1003100026016200AF00C400F7002601C400F70008
:1003200026016200A500C40006014A01C4000601BE
:100330004A016200A500C40006014A01C40006018A
:100340004A0162009300C40006015D01C400060179
:100350005D0162009300C40006015D01C400060156
:100360005D0162009300C400F7005D01C400F70066
:100370005D0162009300C400F7005D01C400F70056
:100380005D0162009C00DC0006017201DC000601D8
:10039000720162009C00DC0006017201DC000601B3
:1003A00072016200A500C40006018801C4000601B4
:1003B00088016200A500C40006018801C40006018E
:1003C00088016200AF00C40006015D01C40006019F
:1003D0005D016200AF00C40006015D01C4000601BA
:1003E0005D016200AF00C400F7005D01C400F700CA
:1003F0005D016200AF00C400F7005D01C400F700BA
:100400005D0141008300C400E9004A01C400E90025
:100410004A0141008300C400E9004A01C400E90028
:100420004A0141008300AF00DC0006015D010601C6
:10043000DC000601DC00AF00DC00AF009300AF0081
:10044000930041007B008801EE014B02BA024B028F
:10045000EE014B02EE018801EE0126015D014A0129
:10046000260106014A0188010B02930288010B0252
:10047000930211241FBECFE5D2E0DEBFCDBF10E056
:10048000A0E6B0E0E8E1FEE002C005900D92A839D8
:10049000B107D9F720E0A8E9B0E001C01D92AD3F57
:1004A000B207E1F775D3B6C4ABCD809163009091EC
:1004B00064000397A1F080916C0090916D00039708
:1004C00081F08091750090917600039761F08091A2
:1004D0007E0090917F00039741F084E0089580E0D2
:1004E000089581E0089582E0089583E008951F92C1
:1004F0000F920FB60F9211240F931F932F933F93D8
:100500004F935F936F937F938F939F93AF93BF931B
:10051000EF93FF9331D30091F7001091F8002091F1
:10052000F9003091FA00601771078207930708F00D
:100530001EBCFF91EF91BF91AF919F918F917F91E1
:100540006F915F914F913F912F911F910F910F905C
:100550000FBE0F901F90189582B38C6382BB8BB730
:1005600080618BBF85B7877E806185BF85B78062DC
:1005700085BF78948895F8948BB78F7E8BBF98E071
:1005800088E10FB6F894A89581BD0FBE91BDFFCF4D
:1005900018959EB581E0911180E00895CF92DF9289
:1005A000EF92FF92CF93DF939C016A017B0184E27B
:1005B00094EFB9013AD3EB01F89482E08BB9DCD225
:1005C0006C0D7D1D8E1D9F1D6093F7007093F800CC
:1005D0008093F9009093FA00C092E900D092EA006B
:1005E000E092EB00F092EC00DBBDCABD8AE08EBD6C
:1005F0007894DF91CF91FF90EF90DF90CF900895A6
:10060000E82FF0E0EB55FF4F8081813079F028F042
:100610008230A9F08330E1F008954EE851E060E0C7
:1006200070E088EB91E0BADFC09A08954EE851E09F
:1006300060E070E088E891E0B1DFC19A08954EE88B
:1006400051E060E070E085E191E0A8DFC29A089592
:100650004EE851E060E070E080E193E09FDFDF9AD8
:100660000895F8941EBC82E08BB978940895A0E0B8
:10067000B0E0ECE3F3E02CC3EC01E8818E2F90E0D6
:100680008C30910508F0E2C0FC01E85BFC4F099456
:100690000BC020C060C06BC06FC0D8C086C09FC0F8
:1006A000BAC0D6C0F3C019C1CE012FD2882341F001
:1006B00081E08093A40080E0CDB7DEB7E8E024C3FA
:1006C000CE0110D2613D774081059105A0F389E00C
:1006D0008A83F1CFEADE8430F9F04ED2CB0173D3B6
:1006E00005EA10E094E0E92EF12C69D3B701B1D20C
:1006F000F80181938F01F0E0053E1F07B1F782E01A
:100700008A831092990010929800809199008BBB77
:100710008091980088BBCFCFCE01E4D1653F714076
:100720008105910590F328D26B837C838D839E8312
:100730008091990081110BC087E08093990080918E
:100740009800811106C080E880939800DECF80E099
:10075000F4CF80E0F9CFCE01C5D1613D774081056E
:10076000910508F4A8CF1092A30083E0B1CF809147
:10077000A30046DF84E0ACCFCE01B4D16139714033
:100780008105910508F497CF6CDF18BA8FE38BBB16
:100790008091A3008F5F8093A3009091A40089179C
:1007A00020F31092A30086E093CFCE019BD169384D
:1007B00073418105910510F088E08ACF76DE982F8D
:1007C000843009F478CF8091A300E82FF0E0EB5556
:1007D000FF4F20819213F0CF13DF87E079CFCE0156
:1007E00081D1613971408105910508F464CF39DF09
:1007F00018BA8FE38BBB9091A3009F5F9093A300E7
:100800008091A400981778F28F5F8093A4008134C0
:1008100098F682E05DCFCE0178D1882359F048EB7D
:100820005BE060E070E086E990E0B8DE87E088BBDE
:10083000DF9A41CFCE0156D1613A7F4081059105C3
:1008400008F439CF0EDF18BA8FE38BBB1A8233CF8F
:100850001092FC001092FB0086E990E0A0E0B0E06E
:100860008093F1009093F200A093F300B093F40012
:100870008EEB90E0A0E0B0E08093ED009093EE006E
:10088000A093EF00B093F0008AE022CF0EDE843018
:1008900009F5E091FB00F091FC00EE0FFF1FEE5D0B
:1008A000FF4F05911491B80180E090E02091F10094
:1008B0003091F2004091F3005091F4009DD124EF6B
:1008C00031E040E050E0D8D1BA01A901C80166DEAC
:1008D0008BE0FECEC6DE81E0FBCE8EB58111EBCE85
:1008E000CE0100D1C090ED00D090EE00E090EF007E
:1008F000F090F000C616D706E806F90608F0DBCE41
:100900008091FB009091FC009C01215032402B31E2
:10091000310510F50091F1001091F2002091F300E3
:100920003091F4000D5F1F4F2F4F3F4F0093F100A8
:100930001093F2002093F3003093F400B701A60166
:100940004B5F5F4F6F4F7F4F4093ED005093EE0032
:100950006093EF007093F00001969093FC008093F9
:10096000FB008032924009F08FCF1A82F5DDFC0146
:1009700090E0961301C00895148213829F5F399608
:10098000F8CFA0E0B0E0E6ECF4E09AC1462EEC012E
:10099000512C83E0682E712C05E010E094E0E92EE4
:1009A000F12CCC24C394D12C32E0A32EB12C5410C2
:1009B00004C0CDB7DEB7E0E19FC1E881F981808056
:1009C000912C8A8102C0959487948A95E2F721E060
:1009D000822299248B819C818230910501F138F427
:1009E000009779F00197C1F053942996E0CF8430B5
:1009F000910509F445C060F10597B1F71C821B828F
:100A0000F3CF8114910481F7B7D06D837E838F83F8
:100A10009887DC82CB82E8CFBC82AB82E5CFACD0BA
:100A20002D813E814F815885621B730B840B950B82
:100A30006333710581059105B8F281149104F1F6D3
:100A40009BD06D837E838F8398877C826B82CCCF93
:100A50008114910491F490D02D813E814F8158856D
:100A6000621B730B840B950B613D774081059105EB
:100A700008F4BACFFC82EB82B7CF1C830B83B4CFD0
:100A80008114910409F4B0CFB9CF1F93CF93DF93B2
:100A9000EC018FEF8A83EF81F885CE010995182F3D
:100AA000888189838A818F3F31F0888365D06B8309
:100AB0007C838D839E83812FDF91CF911F91089539
:100AC000CF93DF93EC0178876F838FEF88838983DF
:100AD00053D06B837C838D839E83CE01D6DFDF91E1
:100AE000CF9108950F931F93CF93DF93EC0144D0E0
:100AF0000B811C812D813E81601B710B820B930B3E
:100B0000DF91CF911F910F910895FC0181E0208129
:100B10009181291301C080E008951F920F920FB6B2
:100B20000F9211248F939F93AF93BF938091E50011
:100B30009091E600A091E700B091E8000196A11D18
:100B4000B11D8093E5009093E600A093E700B09379
:100B5000E800BF91AF919F918F910F900FBE0F90C2
:100B60001F90189580E886BF82E080BF12BE97E094
:100B700098BF89BF83BF08952FB7F8946091E500AF
:100B80007091E6008091E7009091E8002FBF0895F2
:100B900014BE0FB6F894A89581B5886181BD11BCCB
:100BA0000FBE80EC8ABB8FE38BBB87E087BB18BA94
:100BB000D9DF80E888B91EBC82E08BB980E48FBDA4
:100BC0008AE08EBD619A789464E080E690E0CFDEA2
:100BD00067E373E08AE990E073DF85B7806285BFE1
:100BE000889585B78F7D85BF64E080E690E0C9DE9B
:100BF0008AE990E04ADFF1CFEE27FF27AA27BB273B
:100C000008C0A20FB31FE41FF51F220F331F441F9C
:100C1000551F969587957795679598F37040A9F736
:100C2000009799F7BD01CF010895AA1BBB1B51E1A5
:100C300007C0AA1FBB1FA617B70710F0A61BB70B4C
:100C4000881F991F5A95A9F780959095BC01CD01F1
:100C5000089597FB072E16F4009406D077FD08D070
:100C6000E4DF07FC05D03EF4909581959F4F0895F1
:100C7000709561957F4F0895A1E21A2EAA1BBB1BA8
:100C8000FD010DC0AA1FBB1FEE1FFF1FA217B30758
:100C9000E407F50720F0A21BB30BE40BF50B661F6E
:100CA000771F881F991F1A9469F760957095809532
:100CB00090959B01AC01BD01CF0108952F923F9209
:100CC0004F925F926F927F928F929F92AF92BF925C
:100CD000CF92DF92EF92FF920F931F93CF93DF9308
:100CE000CDB7DEB7CA1BDB0B0FB6F894DEBF0FBE65
:100CF000CDBF09942A88398848885F846E847D84B2
:100D00008C849B84AA84B984C884DF80EE80FD80B3
:100D10000C811B81AA81B981CE0FD11D0FB6F89429
:100D2000DEBF0FBECDBFED0108958F929F92AF92AF
:100D3000BF92CF92DF92EF92FF92CF93DF93EC01BD
:100D4000688179818A819B81611571058105910591
:100D500021F464E279ED8BE597E02DE133EF41E09A
:100D600050E03CD049015A0127EA31E440E050E02C
:100D700043DF6B017C012CEE34EF4FEF5FEFC501D9
:100D8000B4013ADFDC01CB018C0D9D1DAE1DBF1DF2
:100D9000B7FF03C00197A109B04888839983AA834C
:100DA000BB839F77DF91CF91FF90EF90DF90CF9043
:100DB000BF90AF909F908F900895B7DF089584E91A
:100DC00090E0B3DF0895A0E0B0E0809394009093AA
:100DD0009500A0939600B09397000895052E97FB79
:100DE00016F400940FD057FD05D046DF07FC02D063
:100DF00046F408C050954095309521953F4F4F4F90
:100E00005F4F089590958095709561957F4F8F4FB6
:080E10009F4F0895F894FFCFF5
:100E18003900020000000000003900030000000053
:100E2800000039000400000000000039000500003F
:100E38000000000006014A0188010B0293028801A4
:080E48000B02930201000000FF
:00000001FF
