:1000000044C25EC2D1C25CC25BC25AC27CC258C288
:1000100057C27CC555C254C253C252C251C250C20B
:100020004FC244C355C386C392C396C388C4AAC3F0
:10003000C3C3DEC3F6C312C438C406014A01880133
:100040000B02930288010B02930206014A01880108
:100050000B02930288010B02930206012601B801EC
:100060004B02BA02B8014B02BA0206012601B801DE
:100070004B02BA02B8014B02BA02F700260188010E
:100080004B02BA0288014B02BA02F700260188012E
:100090004B02BA0288014B02BA0206014A018801EA
:1000A0000B02930288010B02930206014A018801A8
:1000B0000B02930288010B02930206014A01B80168
:1000C00093027003B8019302700306014A01B8015C
:1000D00093027003B80193027003060126017201B6
:1000E000B8014B027201B8014B02060126017201F0
:1000F000B8014B027201B8014B02F70026018801DA
:100100004B02100388014B021003F70026018801FF
:100110004B02100388014B021003F70006014A014D
:1001200088010B024A0188010B02F70006014A010F
:1001300088010B024A0188010B02DC0006014A011A
:1001400088010B024A0188010B02DC0006014A010A
:1001500088010B024A0188010B029300DC00260192
:1001600072010B02260172010B029300DC002601D2
:1001700072010B02260172010B02C400F700260176
:100180008801EE0126018801EE01C400F700260176
:100190008801EE0126018801EE01C400E9004A0150
:1001A00088012A024A0188012A02C400E9004A01A2
:1001B00088012A024A0188012A02AF00DC002601D8
:1001C000B8014B022601B8014B02AF00DC0026014A
:1001D000B8014B022601B8014B02AF00D000260146
:1001E0005D01EE0126015D01EE01AF00D0002601A8
:1001F0005D01EE0126015D01EE01A500C4000601CE
:1002000088010B02060188010B02A500C40006014B
:1002100088010B02060188010B02A500AF00DC007B
:1002200006015D01DC0006015D01A500AF00DC00F8
:1002300006015D01DC0006015D019300AF00DC00FA
:1002400006015D01DC0006015D019300AF00DC00EA
:1002500006015D01DC0006015D0162009300C4003F
:10026000F7005D01C400F7005D0162009300C40067
:10027000F7005D01C400F7005D018300A500C40024
:1002800006014A01C40006014A018300A500C4001A
:1002900006014A01C40006014A018300C400E900C6
:1002A00006014A01E90006014A018300C400E90091
:1002B00006014A01E90006014A015700AF00DC00CF
:1002C00006014A01DC0006014A015700AF00DC00CC
:1002D00006014A01DC0006014A015D008300DC00E2
:1002E00006013701DC00060137015D008300DC00F8
:1002F00006013701DC00060137016800AF00F70096
:1003000006012601F700060126016800AF00F7008C
:1003100006012601F700060126016200AF00C400B5
:10032000F7002601C400F70026016200AF00C400F8
:10033000F7002601C400F70026016200A500C400F2
:1003400006014A01C40006014A016200A500C4007A
:1003500006014A01C40006014A0162009300C4007C
:1003600006015D01C40006015D0162009300C40046
:1003700006015D01C40006015D0162009300C40036
:10038000F7005D01C400F7005D0162009300C40046
:10039000F7005D01C400F7005D0162009C00DC0015
:1003A00006017201DC000601720162009C00DC00A3
:1003B00006017201DC00060172016200A500C400A2
:1003C00006018801C400060188016200A500C4007E
:1003D00006018801C400060188016200AF00C40064
:1003E00006015D01C40006015D016200AF00C400AA
:1003F00006015D01C40006015D016200AF00C4009A
:10040000F7005D01C400F7005D016200AF00C400A9
:10041000F7005D01C400F7005D0141008300C400E6
:10042000E9004A01C400E9004A0141008300C40018
:10043000E9004A01C400E9004A0141008300AF001D
:10044000DC0006015D010601DC000601DC00AF00F6
:10045000DC00AF009300AF00930041007B008801F7
:10046000EE014B02BA024B02EE014B02EE01880193
:10047000EE0126015D014A01260106014A018801BB
:100480000B02930288010B02930211241FBECFE5D9
:10049000D2E0DEBFCDBF10E0A0E6B0E0E8E0FEE0D5
:1004A00002C005900D92A839B107D9F720E0A8E95C
:1004B000B0E001C01D92AC3FB207E1F762D3A2C425
:1004C0009FCD80916300909164000397A1F080918B
:1004D0006C0090916D00039781F080917500909170
:1004E0007600039761F080917E0090917F000397E2
:1004F00041F084E0089580E0089581E0089582E06D
:10050000089583E008951F920F920FB60F92112461
:100510000F931F932F933F934F935F936F937F930B
:100520008F939F93AF93BF93EF93FF931ED300914D
:10053000F6001091F7002091F8003091F900601753
:1005400071078207930708F01EBCFF91EF91BF91DE
:10055000AF919F918F917F916F915F914F913F915B
:100560002F911F910F910F900FBE0F901F90189514
:1005700082B38C6382BB8BB780618BBF85B7877E6C
:10058000806185BF85B7806285BF78948895F8942F
:100590008BB78F7E8BBF98E088E10FB6F894A89553
:1005A00081BD0FBE91BDFFCF18959EB581E0911121
:1005B00080E00895CF92DF92EF92FF92CF93DF9386
:1005C0009C016A017B0184E294EFB90126D3EB011F
:1005D000F89482E08BB9C9D2DC01CB018C0D9D1D52
:1005E000AE1DBF1D8093F6009093F700A093F80016
:1005F000B093F900C092E800D092E900E092EA00DE
:10060000F092EB00DBBDCABD8AE08EBD7894DF912D
:10061000CF91FF90EF90DF90CF900895E82FF0E01A
:10062000EC55FF4F8081813079F028F08230A9F0BD
:100630008330E1F008954EE851E060E070E088EB2F
:1006400091E0B8DFC09A08954EE851E060E070E0B4
:1006500088E891E0AFDFC19A08954EE851E060E08C
:1006600070E085E191E0A6DFC39A08954EE851E07D
:1006700060E070E080E193E09DDFC29A0895F89415
:100680001EBC82E08BB978940895A0E0B0E0EAE463
:10069000F3E016C3EC01E8818E2F90E08C309105D9
:1006A00008F04DC1FC01EF5EFF4F0994CE0126D248
:1006B000882321F081E08093A30042C1CE010BD2B8
:1006C000613D77408105910508F43AC189E03DC05C
:1006D000F8DE8430B9F049D2CB016DD304EA10E0E2
:1006E00094E0E92EF12C63D3B701ABD2F8018193EA
:1006F0008F01F0E0043E1F07B1F782E08A83109279
:10070000980015C0CE01E7D1653F71408105910584
:1007100070F02BD26B837C838D839E8380919800B5
:10072000811102C08FE001C080E080939800809129
:1007300098006AC0CE01CFD1613D77408105910517
:1007400008F4FEC01092A20083E08A83F9C0809171
:10075000A20064DF84E0F9CFCE01BDD161397140E0
:100760008105910508F4ECC08ADF18BA8091A200D7
:100770008F5F8093A2009091A300891728F31092B5
:10078000A20034C0CE01A7D169387341810591051B
:1007900010F088E0DACF95DE982F843009F4D0C0CD
:1007A0008091A200E82FF0E0EC55FF4F20819213DA
:1007B000F0CF34DF87E0C9CFCE018DD161397140F0
:1007C0008105910508F4BCC05ADF18BA9091A200C7
:1007D0009F5F9093A2008091A300981738F08F5FDD
:1007E0008093A3008134A8F682E0AFCF86E0ADCF3E
:1007F000CE0184D1882351F048EB5BE060E070E0EB
:1008000086E990E0D7DE8FE088BB9AC0CE0163D145
:10081000613A7F408105910508F492C030DF18BA33
:100820008EC01092FB001092FA0086E990E0A0E0E2
:10083000B0E08093F0009093F100A093F200B093A9
:10084000F3008EEB90E0A0E0B0E08093EC0090939A
:10085000ED00A093EE00B093EF006FC032DE843065
:1008600009F5E091FA00F091FB00EE0FFF1FE65C46
:10087000FF4F05911491B80180E090E02091F000C5
:100880003091F1004091F2005091F300ADD124EF8E
:1008900031E040E050E0E8D1BA01A901C8018ADEA8
:1008A0008BE053CFECDE81E050CF8EB5811148C094
:1008B000CE0111D1C090EC00D090ED00E090EE00A0
:1008C000F090EF00C616D706E806F906C8F5809145
:1008D000FA009091FB009C01215032402B313105F0
:1008E00010F50091F0001091F1002091F20030918C
:1008F000F3000D5F1F4F2F4F3F4F0093F0001093F9
:10090000F1002093F2003093F300B701A6014B5F92
:100910005F4F6F4F7F4F4093EC005093ED0060931B
:10092000EE007093EF0001969093FB008093FA0025
:100930008032924011F41A821BDE8AE006CF1A82BE
:1009400080E0CDB7DEB7E8E0D7C1FC01339690E098
:10095000961729F0118210829F5F3996F9CF08957A
:10096000A0E0B0E0E5EBF4E0A3C1462EEC01239655
:10097000512C03E010E085E0E82EF12C94E0C92E24
:10098000D12CAA24A394B12C32E0832E912C5414A0
:1009900009F470C0FE0133970190F081E02D608072
:1009A000712CFE013197008002C0759467940A94FF
:1009B000E2F721E0622277248881998182309105D3
:1009C000F1F040F4009779F0019709F050C0998256
:1009D00088824DC08430910509F444C050F10597D8
:1009E00009F443C044C06114710409F040C0BDD093
:1009F0006A837B838C839D83B982A88238C0B5D0FB
:100A00002A813B814C815D81DC01CB01821B930BF0
:100A1000A40BB50BC397A105B10548F1611471048E
:100A200021F5A3D06A837B838C839D8319830883FC
:100A30001EC06114710499F498D02A813B814C81C5
:100A40005D81DC01CB01821B930BA40BB50B813DB7
:100A50009740A105B10558F0D982C88208C0F98233
:100A6000E88205C06114710411F019821882539450
:100A700029968DCFCDB7DEB7E0E136C11F93CF9376
:100A8000DF93EC018FEF8A83EF81F885CE01099522
:100A9000182F888189838A818F3F31F0888365D0C0
:100AA0006B837C838D839E83812FDF91CF911F91F8
:100AB0000895CF93DF93EC0178876F838FEF88835E
:100AC000898353D06B837C838D839E83CE01D6DF55
:100AD000DF91CF9108950F931F93CF93DF93EC0194
:100AE00044D00B811C812D813E81601B710B820BD8
:100AF000930BDF91CF911F910F910895FC0181E03D
:100B000020819181291301C080E008951F920F92E6
:100B10000FB60F9211248F939F93AF93BF93809141
:100B2000E4009091E500A091E600B091E700019605
:100B3000A11DB11D8093E4009093E500A093E60011
:100B4000B093E700BF91AF919F918F910F900FBE2F
:100B50000F901F90189580E886BF82E080BF12BE7C
:100B600097E098BF89BF83BF08952FB7F89460912D
:100B7000E4007091E5008091E6009091E7002FBFBE
:100B8000089514BE0FB6F894A89581B5886181BD0B
:100B900011BC0FBEC0E4CABB8FEB8BBB8FE087BB21
:100BA00018BAD9DF80E888B91EBC82E08BB9CFBD06
:100BB0008AE08EBD619A789464E080E690E0C5DEBC
:100BC00065E473E089E990E074DF85B7806285BFF2
:100BD000889585B78F7D85BF64E080E690E0C0DEB4
:100BE00089E990E04BDFF1CFEE27FF27AA27BB274B
:100BF00008C0A20FB31FE41FF51F220F331F441FAD
:100C0000551F969587957795679598F37040A9F746
:100C1000009799F7BD01CF010895AA1BBB1B51E1B5
:100C200007C0AA1FBB1FA617B70710F0A61BB70B5C
:100C3000881F991F5A95A9F780959095BC01CD0101
:100C4000089597FB072E16F4009406D077FD08D080
:100C5000E4DF07FC05D03EF4909581959F4F089501
:100C6000709561957F4F0895A1E21A2EAA1BBB1BB8
:100C7000FD010DC0AA1FBB1FEE1FFF1FA217B30768
:100C8000E407F50720F0A21BB30BE40BF50B661F7E
:100C9000771F881F991F1A9469F760957095809542
:100CA00090959B01AC01BD01CF0108952F923F9219
:100CB0004F925F926F927F928F929F92AF92BF926C
:100CC000CF92DF92EF92FF920F931F93CF93DF9318
:100CD000CDB7DEB7CA1BDB0B0FB6F894DEBF0FBE75
:100CE000CDBF09942A88398848885F846E847D84C2
:100CF0008C849B84AA84B984C884DF80EE80FD80C4
:100D00000C811B81AA81B981CE0FD11D0FB6F89439
:100D1000DEBF0FBECDBFED0108958F929F92AF92BF
:100D2000BF92CF92DF92EF92FF92CF93DF93EC01CD
:100D3000688179818A819B816115710581059105A1
:100D400021F464E279ED8BE597E02DE133EF41E0AA
:100D500050E03CD049015A0127EA31E440E050E03C
:100D600043DF6B017C012CEE34EF4FEF5FEFC501E9
:100D7000B4013ADFDC01CB018C0D9D1DAE1DBF1D02
:100D8000B7FF03C00197A109B04888839983AA835C
:100D9000BB839F77DF91CF91FF90EF90DF90CF9053
:100DA000BF90AF909F908F900895B7DF089584E92A
:100DB00090E0B3DF0895A0E0B0E0809394009093BA
:100DC0009500A0939600B09397000895052E97FB89
:100DD00016F400940FD057FD05D046DF07FC02D073
:100DE00046F408C050954095309521953F4F4F4FA0
:100DF0005F4F089590958095709561957F4F8F4FC7
:080E00009F4F0895F894FFCF05
:100E08003900020000000000003900030000000063
:100E1800000039000400000000000039000500004F
:100E28000000000006014A0188010B0293028801B4
:080E38000B029302010000000F
:00000001FF
